{
  "contractName": "Voting",
  "abi": [
    {
      "inputs": [],
      "stateMutability": "nonpayable",
      "type": "constructor"
    },
    {
      "anonymous": false,
      "inputs": [
        {
          "indexed": false,
          "internalType": "uint256",
          "name": "proposalId",
          "type": "uint256"
        }
      ],
      "name": "ProposalRegisteredEvent",
      "type": "event"
    },
    {
      "anonymous": false,
      "inputs": [],
      "name": "ProposalsRegistrationEndedEvent",
      "type": "event"
    },
    {
      "anonymous": false,
      "inputs": [],
      "name": "ProposalsRegistrationStartedEvent",
      "type": "event"
    },
    {
      "anonymous": false,
      "inputs": [
        {
          "indexed": false,
          "internalType": "address",
          "name": "voter",
          "type": "address"
        },
        {
          "indexed": false,
          "internalType": "uint256",
          "name": "proposalId",
          "type": "uint256"
        }
      ],
      "name": "VotedEvent",
      "type": "event"
    },
    {
      "anonymous": false,
      "inputs": [
        {
          "indexed": false,
          "internalType": "address",
          "name": "voterAddress",
          "type": "address"
        }
      ],
      "name": "VoterRegisteredEvent",
      "type": "event"
    },
    {
      "anonymous": false,
      "inputs": [],
      "name": "VotesTalliedEvent",
      "type": "event"
    },
    {
      "anonymous": false,
      "inputs": [],
      "name": "VotingSessionEndedEvent",
      "type": "event"
    },
    {
      "anonymous": false,
      "inputs": [],
      "name": "VotingSessionStartedEvent",
      "type": "event"
    },
    {
      "anonymous": false,
      "inputs": [
        {
          "indexed": false,
          "internalType": "enum Voting.WorkflowStatus",
          "name": "previousStatus",
          "type": "uint8"
        },
        {
          "indexed": false,
          "internalType": "enum Voting.WorkflowStatus",
          "name": "newStatus",
          "type": "uint8"
        }
      ],
      "name": "WorkflowStatusChangeEvent",
      "type": "event"
    },
    {
      "inputs": [],
      "name": "administrator",
      "outputs": [
        {
          "internalType": "address",
          "name": "",
          "type": "address"
        }
      ],
      "stateMutability": "view",
      "type": "function",
      "constant": true
    },
    {
      "inputs": [
        {
          "internalType": "uint256",
          "name": "",
          "type": "uint256"
        }
      ],
      "name": "proposals",
      "outputs": [
        {
          "internalType": "string",
          "name": "description",
          "type": "string"
        },
        {
          "internalType": "uint256",
          "name": "voteCount",
          "type": "uint256"
        }
      ],
      "stateMutability": "view",
      "type": "function",
      "constant": true
    },
    {
      "inputs": [
        {
          "internalType": "address",
          "name": "",
          "type": "address"
        }
      ],
      "name": "voters",
      "outputs": [
        {
          "internalType": "bool",
          "name": "isRegistered",
          "type": "bool"
        },
        {
          "internalType": "bool",
          "name": "hasVoted",
          "type": "bool"
        },
        {
          "internalType": "uint256",
          "name": "votedProposalId",
          "type": "uint256"
        }
      ],
      "stateMutability": "view",
      "type": "function",
      "constant": true
    },
    {
      "inputs": [],
      "name": "workflowStatus",
      "outputs": [
        {
          "internalType": "enum Voting.WorkflowStatus",
          "name": "",
          "type": "uint8"
        }
      ],
      "stateMutability": "view",
      "type": "function",
      "constant": true
    },
    {
      "inputs": [
        {
          "internalType": "address",
          "name": "_voterAddress",
          "type": "address"
        }
      ],
      "name": "registerVoter",
      "outputs": [],
      "stateMutability": "nonpayable",
      "type": "function"
    },
    {
      "inputs": [],
      "name": "startProposalsRegistration",
      "outputs": [],
      "stateMutability": "nonpayable",
      "type": "function"
    },
    {
      "inputs": [],
      "name": "endProposalsRegistration",
      "outputs": [],
      "stateMutability": "nonpayable",
      "type": "function"
    },
    {
      "inputs": [
        {
          "internalType": "string",
          "name": "proposalDescription",
          "type": "string"
        }
      ],
      "name": "registerProposal",
      "outputs": [],
      "stateMutability": "nonpayable",
      "type": "function"
    },
    {
      "inputs": [],
      "name": "getProposalsNumber",
      "outputs": [
        {
          "internalType": "uint256",
          "name": "",
          "type": "uint256"
        }
      ],
      "stateMutability": "view",
      "type": "function",
      "constant": true
    },
    {
      "inputs": [
        {
          "internalType": "uint256",
          "name": "index",
          "type": "uint256"
        }
      ],
      "name": "getProposalDescription",
      "outputs": [
        {
          "internalType": "string",
          "name": "",
          "type": "string"
        }
      ],
      "stateMutability": "view",
      "type": "function",
      "constant": true
    },
    {
      "inputs": [],
      "name": "startVotingSession",
      "outputs": [],
      "stateMutability": "nonpayable",
      "type": "function"
    },
    {
      "inputs": [],
      "name": "endVotingSession",
      "outputs": [],
      "stateMutability": "nonpayable",
      "type": "function"
    },
    {
      "inputs": [
        {
          "internalType": "uint256",
          "name": "proposalId",
          "type": "uint256"
        }
      ],
      "name": "vote",
      "outputs": [],
      "stateMutability": "nonpayable",
      "type": "function"
    },
    {
      "inputs": [],
      "name": "tallyVotes",
      "outputs": [],
      "stateMutability": "nonpayable",
      "type": "function"
    },
    {
      "inputs": [],
      "name": "getWinningProposalId",
      "outputs": [
        {
          "internalType": "uint256",
          "name": "",
          "type": "uint256"
        }
      ],
      "stateMutability": "view",
      "type": "function",
      "constant": true
    },
    {
      "inputs": [],
      "name": "getWinningProposalDescription",
      "outputs": [
        {
          "internalType": "string",
          "name": "",
          "type": "string"
        }
      ],
      "stateMutability": "view",
      "type": "function",
      "constant": true
    },
    {
      "inputs": [],
      "name": "getWinningProposalVoteCounts",
      "outputs": [
        {
          "internalType": "uint256",
          "name": "",
          "type": "uint256"
        }
      ],
      "stateMutability": "view",
      "type": "function",
      "constant": true
    },
    {
      "inputs": [
        {
          "internalType": "address",
          "name": "_voterAddress",
          "type": "address"
        }
      ],
      "name": "isRegisteredVoter",
      "outputs": [
        {
          "internalType": "bool",
          "name": "",
          "type": "bool"
        }
      ],
      "stateMutability": "view",
      "type": "function",
      "constant": true
    },
    {
      "inputs": [
        {
          "internalType": "address",
          "name": "_address",
          "type": "address"
        }
      ],
      "name": "isAdministrator",
      "outputs": [
        {
          "internalType": "bool",
          "name": "",
          "type": "bool"
        }
      ],
      "stateMutability": "view",
      "type": "function",
      "constant": true
    },
    {
      "inputs": [],
      "name": "getWorkflowStatus",
      "outputs": [
        {
          "internalType": "enum Voting.WorkflowStatus",
          "name": "",
          "type": "uint8"
        }
      ],
      "stateMutability": "view",
      "type": "function",
      "constant": true
    }
  ],
  "bytecode": "0x608060405234801561001057600080fd5b5033600060016101000a81548173ffffffffffffffffffffffffffffffffffffffff021916908373ffffffffffffffffffffffffffffffffffffffff16021790555060008060006101000a81548160ff0219169083600581111561007057fe5b02179055506120a2806100846000396000f3fe608060405234801561001057600080fd5b5060043610610149576000357c0100000000000000000000000000000000000000000000000000000000900480636c297445116100ca578063e09b8c791161008e578063e09b8c79146105ff578063e81e977b14610609578063ee74c67814610627578063f53d0a8e14610631578063f75d64a61461067b57610149565b80636c297445146104f5578063a1edffa2146104ff578063a3ec138d1461052b578063a7bfab1614610599578063da36cffe146105a357610149565b80632f95355b116101115780632f95355b1461034b578063378a21781461040657806337d05ddc1461041057806338db6dd31461049357806341b1b046146104d757610149565b80630121b93f1461014e578063013cf08b1461017c5780630a2eb3011461022a5780631af8690914610286578063229acb17146102a4575b600080fd5b61017a6004803603602081101561016457600080fd5b81019080803590602001909291905050506106a7565b005b6101a86004803603602081101561019257600080fd5b81019080803590602001909291905050506109c8565b6040518080602001838152602001828103825284818151815260200191508051906020019080838360005b838110156101ee5780820151818401526020810190506101d3565b50505050905090810190601f16801561021b5780820380516001836020036101000a031916815260200191505b50935050505060405180910390f35b61026c6004803603602081101561024057600080fd5b81019080803573ffffffffffffffffffffffffffffffffffffffff169060200190929190505050610a91565b604051808215151515815260200191505060405180910390f35b61028e610aea565b6040518082815260200191505060405180910390f35b6102d0600480360360208110156102ba57600080fd5b8101908080359060200190929190505050610b8e565b6040518080602001828103825283818151815260200191508051906020019080838360005b838110156103105780820151818401526020810190506102f5565b50505050905090810190601f16801561033d5780820380516001836020036101000a031916815260200191505b509250505060405180910390f35b6104046004803603602081101561036157600080fd5b810190808035906020019064010000000081111561037e57600080fd5b82018360208201111561039057600080fd5b803590602001918460018302840111640100000000831117156103b257600080fd5b91908080601f016020809104026020016040519081016040528093929190818152602001838380828437600081840152601f19601f820116905080830192505050505050509192919290505050610c4e565b005b61040e610e1c565b005b610418611079565b6040518080602001828103825283818151815260200191508051906020019080838360005b8381101561045857808201518184015260208101905061043d565b50505050905090810190601f1680156104855780820380516001836020036101000a031916815260200191505b509250505060405180910390f35b6104d5600480360360208110156104a957600080fd5b81019080803573ffffffffffffffffffffffffffffffffffffffff1690602001909291905050506111b5565b005b6104df6114fe565b6040518082815260200191505060405180910390f35b6104fd61150b565b005b6105076116e9565b6040518082600581111561051757fe5b60ff16815260200191505060405180910390f35b61056d6004803603602081101561054157600080fd5b81019080803573ffffffffffffffffffffffffffffffffffffffff1690602001909291905050506116fb565b604051808415151515815260200183151515158152602001828152602001935050505060405180910390f35b6105a161173f565b005b6105e5600480360360208110156105b957600080fd5b81019080803573ffffffffffffffffffffffffffffffffffffffff16906020019092919050505061191d565b604051808215151515815260200191505060405180910390f35b610607611976565b005b610611611b54565b6040518082815260200191505060405180910390f35b61062f611bda565b005b610639611db8565b604051808273ffffffffffffffffffffffffffffffffffffffff1673ffffffffffffffffffffffffffffffffffffffff16815260200191505060405180910390f35b610683611dde565b6040518082600581111561069357fe5b60ff16815260200191505060405180910390f35b600160003373ffffffffffffffffffffffffffffffffffffffff1673ffffffffffffffffffffffffffffffffffffffff16815260200190815260200160002060000160009054906101000a900460ff1661074c576040517f08c379a0000000000000000000000000000000000000000000000000000000008152600401808060200182810382526036815260200180611f436036913960400191505060405180910390fd5b6003600581111561075957fe5b6000809054906101000a900460ff16600581111561077357fe5b146107c9576040517f08c379a000000000000000000000000000000000000000000000000000000000815260040180806020018281038252603a815260200180611f79603a913960400191505060405180910390fd5b600160003373ffffffffffffffffffffffffffffffffffffffff1673ffffffffffffffffffffffffffffffffffffffff16815260200190815260200160002060000160019054906101000a900460ff161561088c576040517f08c379a000000000000000000000000000000000000000000000000000000000815260040180806020018281038252601c8152602001807f7468652063616c6c65722068617320616c726561647920766f7465640000000081525060200191505060405180910390fd5b60018060003373ffffffffffffffffffffffffffffffffffffffff1673ffffffffffffffffffffffffffffffffffffffff16815260200190815260200160002060000160016101000a81548160ff02191690831515021790555080600160003373ffffffffffffffffffffffffffffffffffffffff1673ffffffffffffffffffffffffffffffffffffffff1681526020019081526020016000206001018190555060016002828154811061093c57fe5b9060005260206000209060020201600101600082825401925050819055507f0902475a854b82199b4f5d6b81327ec4c4ec077ce0356a106ddc2748c5285ed33382604051808373ffffffffffffffffffffffffffffffffffffffff1673ffffffffffffffffffffffffffffffffffffffff1681526020018281526020019250505060405180910390a150565b600281815481106109d557fe5b9060005260206000209060020201600091509050806000018054600181600116156101000203166002900480601f016020809104026020016040519081016040528092919081815260200182805460018160011615610100020316600290048015610a815780601f10610a5657610100808354040283529160200191610a81565b820191906000526020600020905b815481529060010190602001808311610a6457829003601f168201915b5050505050908060010154905082565b60008060019054906101000a900473ffffffffffffffffffffffffffffffffffffffff1673ffffffffffffffffffffffffffffffffffffffff168273ffffffffffffffffffffffffffffffffffffffff16149050919050565b6000600580811115610af857fe5b6000809054906101000a900460ff166005811115610b1257fe5b14610b68576040517f08c379a000000000000000000000000000000000000000000000000000000000815260040180806020018281038252603e81526020018061202f603e913960400191505060405180910390fd5b600260035481548110610b7757fe5b906000526020600020906002020160010154905090565b606060028281548110610b9d57fe5b90600052602060002090600202016000018054600181600116156101000203166002900480601f016020809104026020016040519081016040528092919081815260200182805460018160011615610100020316600290048015610c425780601f10610c1757610100808354040283529160200191610c42565b820191906000526020600020905b815481529060010190602001808311610c2557829003601f168201915b50505050509050919050565b600160003373ffffffffffffffffffffffffffffffffffffffff1673ffffffffffffffffffffffffffffffffffffffff16815260200190815260200160002060000160009054906101000a900460ff16610cf3576040517f08c379a0000000000000000000000000000000000000000000000000000000008152600401808060200182810382526036815260200180611f436036913960400191505060405180910390fd5b60016005811115610d0057fe5b6000809054906101000a900460ff166005811115610d1a57fe5b14610d70576040517f08c379a000000000000000000000000000000000000000000000000000000000815260040180806020018281038252602d815260200180611e9a602d913960400191505060405180910390fd5b60026040518060400160405280838152602001600081525090806001815401808255809150506001900390600052602060002090600202016000909190919091506000820151816000019080519060200190610dcd929190611df4565b506020820151816001015550507fdcd2e8cd237900037efa515c36a3caa6812766647c16535dd5fc3c6fd641154c6001600280549050036040518082815260200191505060405180910390a150565b600060019054906101000a900473ffffffffffffffffffffffffffffffffffffffff1673ffffffffffffffffffffffffffffffffffffffff163373ffffffffffffffffffffffffffffffffffffffff1614610ec2576040517f08c379a0000000000000000000000000000000000000000000000000000000008152600401808060200182810382526035815260200180611fb36035913960400191505060405180910390fd5b60046005811115610ecf57fe5b6000809054906101000a900460ff166005811115610ee957fe5b14610f3f576040517f08c379a0000000000000000000000000000000000000000000000000000000008152600401808060200182810382526043815260200180611f006043913960600191505060405180910390fd5b6000809050600080905060008090505b600280549050811015610fb4578260028281548110610f6a57fe5b9060005260206000209060020201600101541115610fa75760028181548110610f8f57fe5b90600052602060002090600202016001015492508091505b8080600101915050610f4f565b508060038190555060056000806101000a81548160ff02191690836005811115610fda57fe5b02179055507fa1f82a14ea162408785ef8969f7cf08b2bb72b081f8d4e2eda49846e52f439c660405160405180910390a17f9474022b1c97b70d3479aafe8672c447d1837ad99ae1f735eced168a65252d1660046000809054906101000a900460ff166040518083600581111561104d57fe5b60ff16815260200182600581111561106157fe5b60ff1681526020019250505060405180910390a15050565b606060058081111561108757fe5b6000809054906101000a900460ff1660058111156110a157fe5b146110f7576040517f08c379a000000000000000000000000000000000000000000000000000000000815260040180806020018281038252603e81526020018061202f603e913960400191505060405180910390fd5b60026003548154811061110657fe5b90600052602060002090600202016000018054600181600116156101000203166002900480601f0160208091040260200160405190810160405280929190818152602001828054600181600116156101000203166002900480156111ab5780601f10611180576101008083540402835291602001916111ab565b820191906000526020600020905b81548152906001019060200180831161118e57829003601f168201915b5050505050905090565b600060019054906101000a900473ffffffffffffffffffffffffffffffffffffffff1673ffffffffffffffffffffffffffffffffffffffff163373ffffffffffffffffffffffffffffffffffffffff161461125b576040517f08c379a0000000000000000000000000000000000000000000000000000000008152600401808060200182810382526035815260200180611fb36035913960400191505060405180910390fd5b6000600581111561126857fe5b6000809054906101000a900460ff16600581111561128257fe5b146112d8576040517f08c379a0000000000000000000000000000000000000000000000000000000008152600401808060200182810382526039815260200180611ec76039913960400191505060405180910390fd5b600160008273ffffffffffffffffffffffffffffffffffffffff1673ffffffffffffffffffffffffffffffffffffffff16815260200190815260200160002060000160009054906101000a900460ff161561139b576040517f08c379a000000000000000000000000000000000000000000000000000000000815260040180806020018281038252601f8152602001807f74686520766f74657220697320616c726561647920726567697374657265640081525060200191505060405180910390fd5b60018060008373ffffffffffffffffffffffffffffffffffffffff1673ffffffffffffffffffffffffffffffffffffffff16815260200190815260200160002060000160006101000a81548160ff0219169083151502179055506000600160008373ffffffffffffffffffffffffffffffffffffffff1673ffffffffffffffffffffffffffffffffffffffff16815260200190815260200160002060000160016101000a81548160ff0219169083151502179055506000600160008373ffffffffffffffffffffffffffffffffffffffff1673ffffffffffffffffffffffffffffffffffffffff168152602001908152602001600020600101819055507f42b360c89ba65a59ac7fec024a7bbb2c21d84b5abe5b5178ba0d7e34653a813081604051808273ffffffffffffffffffffffffffffffffffffffff1673ffffffffffffffffffffffffffffffffffffffff16815260200191505060405180910390a150565b6000600280549050905090565b600060019054906101000a900473ffffffffffffffffffffffffffffffffffffffff1673ffffffffffffffffffffffffffffffffffffffff163373ffffffffffffffffffffffffffffffffffffffff16146115b1576040517f08c379a0000000000000000000000000000000000000000000000000000000008152600401808060200182810382526035815260200180611fb36035913960400191505060405180910390fd5b600160058111156115be57fe5b6000809054906101000a900460ff1660058111156115d857fe5b1461162e576040517f08c379a000000000000000000000000000000000000000000000000000000000815260040180806020018281038252602d815260200180611e9a602d913960400191505060405180910390fd5b60026000806101000a81548160ff0219169083600581111561164c57fe5b02179055507ff629233eb3546085ffcbbb79c947a38b98b14a6915bcc004a0c1a34ae38c29d860405160405180910390a17f9474022b1c97b70d3479aafe8672c447d1837ad99ae1f735eced168a65252d1660016000809054906101000a900460ff16604051808360058111156116bf57fe5b60ff1681526020018260058111156116d357fe5b60ff1681526020019250505060405180910390a1565b6000809054906101000a900460ff1681565b60016020528060005260406000206000915090508060000160009054906101000a900460ff16908060000160019054906101000a900460ff16908060010154905083565b600060019054906101000a900473ffffffffffffffffffffffffffffffffffffffff1673ffffffffffffffffffffffffffffffffffffffff163373ffffffffffffffffffffffffffffffffffffffff16146117e5576040517f08c379a0000000000000000000000000000000000000000000000000000000008152600401808060200182810382526035815260200180611fb36035913960400191505060405180910390fd5b600360058111156117f257fe5b6000809054906101000a900460ff16600581111561180c57fe5b14611862576040517f08c379a000000000000000000000000000000000000000000000000000000000815260040180806020018281038252603a815260200180611f79603a913960400191505060405180910390fd5b60046000806101000a81548160ff0219169083600581111561188057fe5b02179055507f86a7e3ed2917a2b5f100160b6e558c8e7ae6e4fb8f2673d860d3f11b4f345e7260405160405180910390a17f9474022b1c97b70d3479aafe8672c447d1837ad99ae1f735eced168a65252d1660036000809054906101000a900460ff16604051808360058111156118f357fe5b60ff16815260200182600581111561190757fe5b60ff1681526020019250505060405180910390a1565b6000600160008373ffffffffffffffffffffffffffffffffffffffff1673ffffffffffffffffffffffffffffffffffffffff16815260200190815260200160002060000160009054906101000a900460ff169050919050565b600060019054906101000a900473ffffffffffffffffffffffffffffffffffffffff1673ffffffffffffffffffffffffffffffffffffffff163373ffffffffffffffffffffffffffffffffffffffff1614611a1c576040517f08c379a0000000000000000000000000000000000000000000000000000000008152600401808060200182810382526035815260200180611fb36035913960400191505060405180910390fd5b60006005811115611a2957fe5b6000809054906101000a900460ff166005811115611a4357fe5b14611a99576040517f08c379a0000000000000000000000000000000000000000000000000000000008152600401808060200182810382526039815260200180611ec76039913960400191505060405180910390fd5b60016000806101000a81548160ff02191690836005811115611ab757fe5b02179055507f65b51a6e225dbda234ac3ca54831842456809aa60205dd84e758670106b4a6f360405160405180910390a17f9474022b1c97b70d3479aafe8672c447d1837ad99ae1f735eced168a65252d1660008060009054906101000a900460ff1660405180836005811115611b2a57fe5b60ff168152602001826005811115611b3e57fe5b60ff1681526020019250505060405180910390a1565b6000600580811115611b6257fe5b6000809054906101000a900460ff166005811115611b7c57fe5b14611bd2576040517f08c379a000000000000000000000000000000000000000000000000000000000815260040180806020018281038252603e81526020018061202f603e913960400191505060405180910390fd5b600354905090565b600060019054906101000a900473ffffffffffffffffffffffffffffffffffffffff1673ffffffffffffffffffffffffffffffffffffffff163373ffffffffffffffffffffffffffffffffffffffff1614611c80576040517f08c379a0000000000000000000000000000000000000000000000000000000008152600401808060200182810382526035815260200180611fb36035913960400191505060405180910390fd5b60026005811115611c8d57fe5b6000809054906101000a900460ff166005811115611ca757fe5b14611cfd576040517f08c379a0000000000000000000000000000000000000000000000000000000008152600401808060200182810382526047815260200180611fe86047913960600191505060405180910390fd5b60036000806101000a81548160ff02191690836005811115611d1b57fe5b02179055507ffca8377aff3a08252b769c58e6769a534922eabaaf9952691ea9cfcaed41fbd860405160405180910390a17f9474022b1c97b70d3479aafe8672c447d1837ad99ae1f735eced168a65252d1660026000809054906101000a900460ff1660405180836005811115611d8e57fe5b60ff168152602001826005811115611da257fe5b60ff1681526020019250505060405180910390a1565b600060019054906101000a900473ffffffffffffffffffffffffffffffffffffffff1681565b60008060009054906101000a900460ff16905090565b828054600181600116156101000203166002900490600052602060002090601f016020900481019282601f10611e3557805160ff1916838001178555611e63565b82800160010185558215611e63579182015b82811115611e62578251825591602001919060010190611e47565b5b509050611e709190611e74565b5090565b611e9691905b80821115611e92576000816000905550600101611e7a565b5090565b9056fe7468652063616c6c6564206f6e6c7920647572696e672070726f706f73616c7320726567697374726174696f6e7468652063616c6c6564206f6e6c79206265666f72652070726f706f73616c7320726567697374726174696f6e206861732073746172746564746869732066756e6374696f6e2063616e2062652063616c6c6564206f6e6c792061667465722074686520766f74696e672073657373696f6e2068617320656e6465647468652063616c6c6572206f6620746869732066756e6374696f6e206d7573742062652061207265676973746572656420766f746572746869732066756e6374696f6e2063616e2062652063616c6c6564206f6e6c7920647572696e672074686520766f74696e672073657373696f6e7468652063616c6c6572206f6620746869732066756e6374696f6e206d757374206265207468652061646d696e6973747261746f72746869732066756e6374696f6e2063616e2062652063616c6c6564206f6e6c792061667465722070726f706f73616c7320726567697374726174696f6e2068617320656e646564746869732066756e6374696f6e2063616e2062652063616c6c6564206f6e6c7920616674657220766f7465732068617665206265656e2074616c6c696564a264697066735822122021ca6179665e5ef85706bdf4794f5d8ef6281d7e5e0085a7e20f9bda8eba2f1b64736f6c634300060b0033",
  "immutableReferences": {},
  "source": "// SPDX-License-Identifier: MIT\npragma solidity 0.6.11;\n\ncontract Voting {\n    struct Voter {\n        bool isRegistered;\n        bool hasVoted;\n        uint votedProposalId;\n    }\n\n    struct Proposal {\n        string description;\n        uint voteCount;\n    }\n\n    enum WorkflowStatus {\n        RegisteringVoters,\n        ProposalsRegistrationStarted,\n        ProposalsRegistrationEnded,\n        VotingSessionStarted,\n        VotingSessionEnded,\n        VotesTallied\n    }\n\n    WorkflowStatus public workflowStatus;\n    address public administrator;\n    mapping(address => Voter) public voters;\n    Proposal[] public proposals;\n    uint private winningProposalId;\n\n    modifier onlyAdministrator() {\n        require(msg.sender == administrator,\n\n            \"the caller of this function must be the administrator\");\n        _;\n    }\n\n    modifier onlyRegisteredVoter() {\n        require(voters[msg.sender].isRegistered,\n            \"the caller of this function must be a registered voter\");\n        _;\n    }\n\n    modifier onlyDuringVotersRegistration() {\n        require(workflowStatus == WorkflowStatus.RegisteringVoters,\n        \"the called only before proposals registration has started\");\n        _;\n    }\n\n    modifier onlyDuringProposalsRegistration() {\n        require(workflowStatus ==\n        WorkflowStatus.ProposalsRegistrationStarted,\n        \"the called only during proposals registration\");\n        _;\n    }\n\n    modifier onlyAfterProposalsRegistration() {\n        require(workflowStatus == WorkflowStatus.ProposalsRegistrationEnded,\n        \"this function can be called only after proposals registration has ended\");\n        _;\n    }\n\n    modifier onlyDuringVotingSession() {\n        require(workflowStatus == WorkflowStatus.VotingSessionStarted,\n            \"this function can be called only during the voting session\");\n        _;\n    }\n\n    modifier onlyAfterVotingSession() {\n        require(workflowStatus == WorkflowStatus.VotingSessionEnded,\n        \"this function can be called only after the voting session has ended\");\n        _;\n    }\n\n    modifier onlyAfterVotesTallied() {\n        require(workflowStatus == WorkflowStatus.VotesTallied,\n        \"this function can be called only after votes have been tallied\");\n        _;\n    }\n\n    event VoterRegisteredEvent (\n        address voterAddress\n    );\n\n    event ProposalsRegistrationStartedEvent ();\n\n    event ProposalsRegistrationEndedEvent ();\n\n    event ProposalRegisteredEvent(\n        uint proposalId\n    );\n\n    event VotingSessionStartedEvent ();\n\n    event VotingSessionEndedEvent ();\n\n    event VotedEvent (\n        address voter,\n        uint proposalId\n    );\n\n    event VotesTalliedEvent ();\n\n    event WorkflowStatusChangeEvent (\n        WorkflowStatus previousStatus,\n        WorkflowStatus newStatus\n    );\n\n    constructor() public {\n        administrator = msg.sender;\n        workflowStatus = WorkflowStatus.RegisteringVoters;\n    }\n\n    function registerVoter(address _voterAddress)\n    public onlyAdministrator onlyDuringVotersRegistration {\n\n        require(!voters[_voterAddress].isRegistered,\n            \"the voter is already registered\");\n\n        voters[_voterAddress].isRegistered = true;\n        voters[_voterAddress].hasVoted = false;\n        voters[_voterAddress].votedProposalId = 0;\n\n        emit VoterRegisteredEvent(_voterAddress);\n    }\n\n    function startProposalsRegistration()\n    public onlyAdministrator onlyDuringVotersRegistration {\n        workflowStatus = WorkflowStatus.ProposalsRegistrationStarted;\n\n        emit ProposalsRegistrationStartedEvent();\n        emit WorkflowStatusChangeEvent(\n            WorkflowStatus.RegisteringVoters, workflowStatus);\n    }\n\n    function endProposalsRegistration()\n    public onlyAdministrator onlyDuringProposalsRegistration {\n        workflowStatus = WorkflowStatus.ProposalsRegistrationEnded;\n\n\n        emit ProposalsRegistrationEndedEvent();\n        emit WorkflowStatusChangeEvent(\n            WorkflowStatus.ProposalsRegistrationStarted, workflowStatus);\n    }\n\n    function registerProposal(string memory proposalDescription)\n    public onlyRegisteredVoter onlyDuringProposalsRegistration {\n        proposals.push(Proposal({\n        description: proposalDescription,\n        voteCount: 0\n        }));\n\n        emit ProposalRegisteredEvent(proposals.length - 1);\n    }\n\n    function getProposalsNumber() public view\n    returns (uint) {\n        return proposals.length;\n    }\n\n    function getProposalDescription(uint index) public view\n    returns (string memory) {\n        return proposals[index].description;\n    }\n\n    function startVotingSession()\n    public onlyAdministrator onlyAfterProposalsRegistration {\n        workflowStatus = WorkflowStatus.VotingSessionStarted;\n\n        emit VotingSessionStartedEvent();\n        emit WorkflowStatusChangeEvent(\n            WorkflowStatus.ProposalsRegistrationEnded, workflowStatus);\n    }\n\n    function endVotingSession()\n    public onlyAdministrator onlyDuringVotingSession {\n        workflowStatus = WorkflowStatus.VotingSessionEnded;\n\n        emit VotingSessionEndedEvent();\n        emit WorkflowStatusChangeEvent(\n            WorkflowStatus.VotingSessionStarted, workflowStatus);\n    }\n    function vote(uint proposalId)\n    onlyRegisteredVoter\n    onlyDuringVotingSession public {\n        require(!voters[msg.sender].hasVoted,\n            \"the caller has already voted\");\n\n        voters[msg.sender].hasVoted = true;\n        voters[msg.sender].votedProposalId = proposalId;\n\n        proposals[proposalId].voteCount += 1;\n\n        emit VotedEvent(msg.sender, proposalId);\n    }\n\n    function tallyVotes() onlyAdministrator onlyAfterVotingSession public {\n        uint winningVoteCount = 0;\n        uint winningProposalIndex = 0;\n\n        for (uint i = 0; i < proposals.length; i++) {\n            if (proposals[i].voteCount > winningVoteCount) {\n                winningVoteCount = proposals[i].voteCount;\n                winningProposalIndex = i;\n            }\n        }\n\n        winningProposalId = winningProposalIndex;\n        workflowStatus = WorkflowStatus.VotesTallied;\n\n        emit VotesTalliedEvent();\n        emit WorkflowStatusChangeEvent(\n            WorkflowStatus.VotingSessionEnded, workflowStatus);\n    }\n\n    function getWinningProposalId() onlyAfterVotesTallied public view\n    returns (uint) {\n        return winningProposalId;\n    }\n\n    function getWinningProposalDescription()\n    onlyAfterVotesTallied public view\n    returns (string memory) {\n        return proposals[winningProposalId].description;\n    }\n\n    function getWinningProposalVoteCounts() onlyAfterVotesTallied public view\n    returns (uint) {\n        return proposals[winningProposalId].voteCount;\n    }\n\n    function isRegisteredVoter(address _voterAddress) public view\n    returns (bool) {\n        return voters[_voterAddress].isRegistered;\n    }\n\n    function isAdministrator(address _address) public view\n    returns (bool) {\n        return _address == administrator;\n    }\n\n    function getWorkflowStatus() public view\n    returns (WorkflowStatus) {\n        return workflowStatus;\n    }\n}\n",
  "sourcePath": "/Users/Lidmi/Desktop/Alyra/Code/defi/voting-react-box/contracts/Voting.sol",
  "compiler": {
    "name": "solc",
    "version": "0.6.11+commit.5ef660b1.Emscripten.clang"
  },
  "schemaVersion": "3.3.4",
  "updatedAt": "2021-03-19T10:24:17.614Z",
  "networkType": "ethereum",
  "devdoc": {
    "kind": "dev",
    "methods": {},
    "version": 1
  },
  "userdoc": {
    "kind": "user",
    "methods": {},
    "version": 1
  }
}